:020000040800F2
:1000000000400020411400083103000833030008B9
:10001000350300083703000839030008000000001A
:100020000000000000000000000000003B0300088A
:100030003D030008000000003F03000841030008E2
:1000400091140008911400089114000891140008FC
:1000500091140008911400089114000891140008EC
:1000600091140008911400089114000891140008DC
:1000700091140008911400089114000891140008CC
:1000800091140008911400089114000891140008BC
:1000900091140008911400089114000891140008AC
:1000A000911400089114000891140008911400089C
:1000B00091140008000000000000000091140008E6
:1000C0009114000891140008911400080000000029
:1000D000911400089114000891140008911400086C
:1000E0009114000891140008911400080000000009
:1000F0000000000000000000000000000000000000
:100100000000000000000000000000009114000842
:100110000000000000000000911400080000000032
:1001200000000000000000000000000000000000CF
:1001300000000000000000000000000000000000BF
:100140009114000891140008000000000000000055
:10015000000000000000000000000000000000009F
:1001600091140008911400089114000891140008DB
:1001700091140008000000000000000000000000D2
:080180000000000091140008CA
:1001880010B5054C237833B9044B13B10448AFF3C9
:1001980000800123237010BD0C0000200000000027
:1001A800EC14000808B5034B1BB103490348AFF32F
:1001B800008008BD0000000010000020EC140008BA
:1001C80070B58AB00024059406940794089409949D
:1001D800204B5A6942F400225A615A6902F40022FB
:1001E8000192019A5A6942F480025A615A6902F4EA
:1001F80080020292029A5A6942F400325A615A699C
:1002080002F400320392039A5A6942F480225A6136
:100218005B6903F480230493049B0F4D22464FF43B
:100228000051284601F092F84FF4005605964FF415
:1002380004130693079405A9084800F0A9FF05963A
:10024800012306930794089405A9284600F0A0FF07
:100258000AB070BD001002400004004800080048C1
:1002680072B6FEE708B50B480B4B03604FF4164314
:10027800436000238360C36003610C224261836191
:10028800C3610362436200F09CFA00B908BDFFF73E
:10029800E7FF00BF280000200044004000B591B0EF
:1002A8002822002106A801F015F9002301930293E2
:1002B8000393049305930223069301220A921022C2
:1002C8000B920D934FF460130F9306A800F008FBF0
:1002D80080B90F23019302210291002303934FF465
:1002E80080620492059301A800F04CFE20B911B079
:1002F8005DF804FBFFF7B4FFFFF7B2FF08B500F0A5
:10030800B7FAFFF7CBFFFFF75BFFFFF7ABFF4FF441
:100318007A7000F0D1FA4FF40051024801F01BF84E
:10032800F5E700BF00040048FEE7FEE7FEE7FEE74A
:10033800FEE770477047704708B500F0ABFA08BD94
:1003480000B583B00C4B9A6942F001029A619A6930
:1003580002F001020092009ADA6942F08052DA61F2
:10036800DB6903F080530193019B072000F0FCFF39
:1003780003B05DF804FB00BF0010024000B589B06F
:100388000023039304930593069307930268134B82
:100398009A4202D009B05DF804FB03F5E633DA6946
:1003A80042F40032DA61DA6902F400320192019A09
:1003B8005A6942F400325A615B6903F400330293CC
:1003C800029B0C230393022304930723079303A997
:1003D8004FF0904000F0DCFEDCE700BF0044004036
:1003E800026852E8003F23F4907342E80031002984
:1003F800F6D1026802F1080353E8003F23F0010335
:10040800083242E800310029F3D1036E012B06D0EF
:100418002023C0F880300023036683667047026893
:1004280052E8003F23F0100342E800310029F6D1DA
:10043800EEE7000010B50446836802691343426979
:100448001343C2691343016808684E4A02401343C4
:100458000B602268536823F44053E1680B435360F0
:10046800A269236A1A4321688B6823F43063134313
:100478008B602368444A934214D0444A934227D05D
:1004880002F5806293421FD01023E069B0F5004F57
:1004980020D0082B70D8DFE803F04A60486F636FFC
:1004A8006F6F66003A4B1B6B03F00303032B09D8ED
:1004B800DFE803F00204060C0023E6E70423E4E780
:1004C8000823E2E71023E0E70023DEE70223DCE766
:1004D8000023DAE7082B49D8DFE803F0051F254891
:1004E80022484848090000F027FE002840D06268EA
:1004F800530803EB4000B0FBF2F0A0F110024FF6F6
:10050800EF739A4236D883B223F00F03C0F3420048
:1005180018432368D86000201BE000F023FEE4E7BE
:1005280000F0F8FCE1E71B48E1E71A4802E000F0B8
:1005380003FE18B3636800EB5300B0FBF3F0A0F1BF
:1005480010024FF6EF739A421AD8236880B2D86027
:1005580000200023A366E36610BD00F003FEE8E771
:1005680000F0D8FCE5E74FF40040E3E70120F0E7AE
:100578000020EEE70120ECE70120EAE70020E8E7A9
:100588000120E6E7F369FFEF00380140004400402E
:100598000010024000127A00436A13F0010F06D0DF
:1005A8000268536823F40033816A0B435360436A3B
:1005B80013F0020F06D00268536823F48033C16A2F
:1005C8000B435360436A13F0040F06D00268536864
:1005D80023F48023016B0B435360436A13F0080F25
:1005E80006D00268536823F40043416B0B43536001
:1005F800436A13F0100F06D00268936823F48053FF
:10060800816B0B439360436A13F0200F06D0026896
:10061800936823F40053C16B0B439360436A13F050
:10062800400F0AD00268536823F48013016C0B430F
:100638005360036CB3F5801F0BD0436A13F0800F2F
:1006480006D00268536823F40023816C0B4353607F
:1006580070470268536823F4C003416C0B4353602E
:10066800EBE72DE9F84305460F4616469946DDF8AF
:1006780020802C68E46937EA04030CBF4FF0010CB2
:100688004FF0000CB44532D1B8F1FF3FF1D000F083
:100698000DF9A0EB090040452CD8B8F1000F2BD07C
:1006A8002B681A6812F0040FE3D0DA6912F0080F09
:1006B80011D1DA6912F4006FDBD04FF400621A62CC
:1006C8002846FFF78DFE2023C5F88430002385F8DF
:1006D800783003200CE008241C622846FFF780FECF
:1006E800C5F88440002385F87830012000E0002018
:1006F800BDE8F8830320FBE70320F9E730B583B0B2
:1007080004460023C0F8843000F0D0F8054622687B
:10071800126812F0080F0FD123681B6813F0040F3A
:1007280026D12023E367C4F8803000202066606665
:1007380084F8780003B030BD6FF07E430093034621
:1007480000224FF400112046FFF78BFF0028E3D06A
:10075800226852E8003F23F0800342E80031002974
:10076800F6D12023E367002384F878300320E1E7FB
:100778006FF07E4300932B4600224FF48001204601
:10078800FFF76FFF0028CCD0226852E8003F23F41F
:10079800907342E800310029F6D1226802F108037B
:1007A80053E8003F23F00103083242E800310029F2
:1007B800F3D12023C4F88030002384F87830032054
:1007C800B8E768B310B50446C36F03B32423E367DF
:1007D8002268136823F0010313602046FFF72AFEFE
:1007E800012813D0636ABBB92268536823F4904385
:1007F80053602268936823F02A0393602268136881
:1008080043F0010313602046FFF778FF10BD80F81E
:100818007830FFF7B3FDD9E72046FFF7BDFEE3E7E1
:100828000120704710B504460E4B18784FF47A73C0
:10083800B3FBF0F30C4A1068B0FBF3F000F0DEFDF8
:1008480068B90F2C01D901200AE0002221464FF097
:10085800FF3000F09BFD054B1C60002000E00120EC
:1008680010BD00BF00000020080000200400002088
:1008780008B5074A136843F010031360032000F01B
:1008880073FD0020FFF7CEFFFFF75AFD002008BDDB
:1008980000200240034A1168034B1B780B44136085
:1008A800704700BFB000002000000020014B18680E
:1008B800704700BFB000002038B50446FFF7F6FFC8
:1008C8000546B4F1FF3F02D0044B1B781C44FFF7E8
:1008D800EDFF401BA042FAD338BD00BF0000002046
:1008E800002800F0018370B582B00446036813F055
:1008F800010F3BD0B54B5B6803F00C03042B1ED0F3
:10090800B24B5B6803F00C03082B13D06368B3F594
:10091800803F68D0002B40F0928003F1804303F5BC
:1009280004331A6822F480321A601A6822F480228A
:100938001A605DE0A54B5B6813F4803FE6D04FF486
:10094800003393FAA3F3A14B19684FF4003393FAD9
:10095800A3F3B3FA83F303F01F03012202FA03F3AC
:100968000B4203D06368002B00F0C082236813F0A9
:10097800020F00F0C580954B5B6813F00C0F00F078
:100988009C80924B5B6803F00C03082B00F08F806F
:100998002369002B00F0F280012292FAA2F3B3FA45
:1009A80083F303F1845303F584139B001A60FFF764
:1009B8007DFF0546022393FAA3F3844B19680223AB
:1009C80093FAA3F3B3FA83F303F01F03012202FAA5
:1009D80003F30B4240F0C380FFF768FF401B022877
:1009E800E8D903208BE2794A136843F48033136013
:1009F800764AD36A23F00F03A1680B43D362636876
:100A0800002B36D0FFF752FF05464FF4003393FA18
:100A1800A3F36E4B19684FF4003393FAA3F3B3FAB8
:100A280083F303F01F03012202FA03F30B429DD163
:100A3800FFF73CFF401B6428E7D903205FE2B3F5CA
:100A4800A02F09D0614B1A6822F480321A601A6804
:100A580022F480221A60CBE703F18043A3F53C33EC
:100A68001A6842F480221A601A6842F480321A60C6
:100A7800BEE7FFF71BFF05464FF4003393FAA3F3D5
:100A8800524B19684FF4003393FAA3F3B3FA83F384
:100A980003F01F03012202FA03F30B423FF466AF8F
:100AA800FFF704FF401B6428E6D9032027E2474BE1
:100AB8005B6813F4803F7FF46BAF022393FAA3F3D0
:100AC800424B1968022393FAA3F3B3FA83F303F0B2
:100AD8001F03012202FA03F30B4203D02369934256
:100AE80040F006823948036823F0F8036169F82268
:100AF80092FAA2F2B2FA82F201FA02F21343036006
:100B0800236813F0080F00F08D80A369002B61D0D3
:100B1800012191FAA1F2B2FA82F22D4B13449B0003
:100B28001960FFF7C3FE0546022393FAA3F293FA6E
:100B3800A3F293FAA3F2254A516A93FAA3F3B3FAFC
:100B480083F303F01F03012202FA03F30B4269D176
:100B5800FFF7ACFE401B0228E6D90320CFE11B4873
:100B6800036823F0F8036169F82292FAA2F2B2FA54
:100B780082F201FA02F213430360C1E7012393FAF8
:100B8800A3F3B3FA83F303F1845303F584139B00AF
:100B980000221A60FFF78AFE0546022393FAA3F3A0
:100BA8000A4B1968022393FAA3F3B3FA83F303F009
:100BB8001F03012202FA03F30B42A1D0FFF776FECE
:100BC800401B0228E9D9032099E100BF0010024028
:100BD80020819010012292FAA2F2B2FA82F2B74B67
:100BE80013449B0000221A60FFF760FE05460223AB
:100BF80093FAA3F293FAA3F293FAA3F2B04A516AD2
:100C080093FAA3F3B3FA83F303F01F03012202FA62
:100C180003F30B4206D0FFF749FE401B0228E6D932
:100C280003206CE1236813F0040F00F0A980A44BA3
:100C3800DB6913F0805F20D1A14BDA6942F0805262
:100C4800DA61DB6903F080530193019B01259D4B19
:100C58001B6813F4807F12D0E368012B23D073BB89
:100C680003F1804303F504331A6A22F001021A6281
:100C78001A6A22F004021A621AE00025E7E7914A8C
:100C8800136843F480731360FFF710FE06468D4B1C
:100C98001B6813F4807FDFD1FFF708FE801B6428F0
:100CA800F5D903202BE1864A136A43F00103136246
:100CB800E368002B3CD0FFF7F9FD06462BE0052B37
:100CC80009D07F4B1A6A22F001021A621A6A22F0CE
:100CD80004021A62ECE77A4B1A6A42F004021A62BA
:100CE8001A6A42F001021A62E2E7754B196A022396
:100CF80093FAA3F3B3FA83F303F01F03012202FA72
:100D080003F319423BD1FFF7D1FD801B41F2883331
:100D1800984200F2EF80022393FAA3F293FAA3F326
:100D2800002BE2D1022393FAA3F3654B596ADEE75D
:100D3800FFF7BCFD064615E0614B196A022393FADA
:100D4800A3F3B3FA83F303F01F03012202FA03F3B8
:100D5800194214D0FFF7AAFD801B41F2883398424C
:100D680000F2CA80022393FAA3F293FAA3F3002BAA
:100D7800E2D1022393FAA3F3514B596ADEE7B5BBDC
:100D8800E369002B00F0BA804D4A526802F00C0269
:100D9800082A00F09980022B2FD04FF0807393FA25
:100DA800A3F3B3FA83F303F1845303F584139B008D
:100DB80000221A60FFF77AFD04464FF0007393FA99
:100DC800A3F33F4B19684FF0007393FAA3F3B3FAF8
:100DD80083F303F01F03012202FA03F319426BD0D5
:100DE800FFF764FD001B0228E7D9032087E0344A97
:100DF800D36923F08053D361C2E74FF0807393FA2D
:100E0800A3F3B3FA83F303F1845303F584139B002C
:100E180000221A60FFF74AFD05464FF0007393FA67
:100E2800A3F3274B19684FF0007393FAA3F3B3FAAF
:100E380083F303F01F03012202FA03F3194206D0D9
:100E4800FFF734FD401B0228E7D9032057E01C496F
:100E58004B6823F47413626A206A024313434B609D
:100E68004FF0807393FAA3F3B3FA83F303F1845337
:100E780003F584139B0001221A60FFF717FD04464F
:100E88004FF0007393FAA3F30D4B19684FF00073FA
:100E980093FAA3F3B3FA83F303F01F03012202FAD0
:100EA80003F3194206D1FFF701FD001B0228E7D919
:100EB800032024E0002022E0002020E02081901080
:100EC8000010024000700040012B1AD0104B5B68E4
:100ED80003F48031226A914215D103F47013626AD7
:100EE800934212D100200AE001207047012006E059
:100EF800012004E0032002E0032000E0002002B00B
:100F080070BD0120FBE70120F9E70120F7E700BFEA
:100F180000100240164B5B6803F00C02082A01D04F
:100F28001448704703F470114FF4701292FAA2F249
:100F3800B2FA82F221FA02F20F49885C0C4AD26AAC
:100F480002F00F020F2191FAA1F1B1FA81F1CA4022
:100F58000A498A5C13F4803F05D0064BB3FBF2F3D1
:100F680003FB00F07047064B03FB00F0704700BF1F
:100F78000010024000127A00041500081415000839
:100F880000093D00002800F0BE8070B50D460446FB
:100F9800614B1B6803F007038B420BD25E4A136850
:100FA80023F007030B431360136803F007038B4216
:100FB80040F0AB80236813F0020F06D0574A5368FD
:100FC80023F0F003A1680B435360236813F0010F6B
:100FD8005AD06368012B2DD0022B40D0022292FAFE
:100FE800A2F24E4A1068022292FAA2F2B2FA82F2F1
:100FF80002F01F02012101FA02F2104200F087807C
:1010080046494A6822F0030213434B60FFF74EFC3F
:101018000646424B5B6803F00C036268B3EB820F31
:1010280032D0FFF743FC801B41F288339842F0D955
:10103800032067E04FF4003292FAA2F2374A1068B0
:101048004FF4003292FAA2F2B2FA82F202F01F02D0
:10105800012101FA02F20242D2D1012052E04FF0FE
:10106800007292FAA2F22D4A10684FF0007292FABA
:10107800A2F2B2FA82F202F01F02012101FA02F290
:101088001042BDD101203DE0234B1B6803F007034C
:10109800AB420AD9204A136823F007032B43136095
:1010A800136803F00703AB4233D1236813F0040F2E
:1010B80006D01A4A536823F4E063E1680B4353608F
:1010C800236813F0080F07D0144A536823F46053B9
:1010D800216943EAC1035360FFF71CFF0F4B5B68AC
:1010E80003F0F003F02292FAA2F2B2FA82F2D340AD
:1010F8000B4AD35CD8400B4B18600B4B1868FFF7B2
:1011080091FB002070BD012070470120FAE7012003
:10111800F8E70120F6E700BF002002400010024077
:10112800241500080800002004000020014B18685E
:10113800704700BF0800002008B5FFF7F7FF074B0E
:101148005B6803F4E0634FF4E06292FAA2F2B2FA49
:1011580082F2D340024AD35CD84008BD0010024056
:101168003415000808B5FFF7E1FF074B5B6803F487
:1011780060534FF4605292FAA2F2B2FA82F2D3406C
:10118800024AD35CD84008BD00100240341500085C
:10119800F0B583B0002362E085685E000324B440A4
:1011A80025EA0405CC68B4402C438460446824EAEA
:1011B8000C0C4C68C4F300149C4044EA0C044460D2
:1011C8005EE0DD08083550F8256003F007044FEAB3
:1011D800840C0F2404FA0CF426EA040E0C6904FAB1
:1011E8000CF444EA0E0440F8254060E0032400E0D3
:1011F800002404FA0EF42C430CF1020C4F4D45F870
:101208002C404F4CA568D44325EA02064F6817F4D2
:10121800801F01D042EA0506494DAE60ED6804EA38
:1012280005064F6817F4001F01D042EA0506444D31
:10123800EE606D6804EA05064F6817F4003F01D0B8
:1012480042EA05063E4D6E602D682C404E6816F445
:10125800803F01D042EA0504394A146001330A6824
:1012680032FA03F468D04FF0010C0CFA03FC1CEAC4
:101278000202F3D04C6804F00304013C012C8BD922
:101288004C6804F00304032C0CD0C4685D004FF0D4
:10129800030C0CFA05FC24EA0C0C8C68AC4044EAFC
:1012A8000C04C4604C6804F00304022C89D0046860
:1012B8004FEA430E4FF0030C0CFA0EFC24EA0C0C18
:1012C8004C6804F0030404FA0EF444EA0C040460C5
:1012D8004C6814F4403FC1D01A4CA56945F001058B
:1012E800A561A46904F001040194019C4FEA930CE0
:1012F8000CF10205114C54F8255003F003044FEA91
:10130800840E0F2404FA0EF425EA0405B0F1904F78
:101318003FF46EAF0C4CA0420AD004F58064A042A2
:1013280008D004F58064A0423FF460AF052460E76C
:1013380001245EE702245CE703B0F0BD0000014031
:101348000004014000100240000400480AB1816115
:10135800704781627047436901EA030221EA030189
:1013680041EA024181617047074AD36823F4E06388
:101378001B041B0C000200F4E060034343F0BF634E
:1013880043F40033D360704700ED00E000B5194B1B
:10139800DB68C3F30223C3F1070CBCF1040F28BFB9
:1013A8004FF0040C03F1040EBEF1060F18D9033BED
:1013B8004FF0FF3E0EFA0CFC21EA0C0199400EFAA0
:1013C80003F322EA0303194300280BDB0901C9B21E
:1013D80000F1604000F5614080F800135DF804FBFF
:1013E8000023E5E700F00F000901C9B2024B1954C8
:1013F800F4E700BF00ED00E014ED00E00138B0F1C3
:10140800807F0BD24FF0E0235861054AF02182F823
:1014180023100020986107221A6170470120704745
:1014280000ED00E0034AD2F8883043F47003C2F8B4
:101438008830704700ED00E0DFF834D0FFF7F2FFA6
:101448000C480D490D4A002302E0D458C450043317
:10145800C4188C42F9D30A4A0A4C002301E01360ED
:101468000432A242FBD300F011F8FEF747FFFEE773
:1014780000400020000000200C0000204415000857
:101488000C000020B4000020FEE7000070B50D4DF0
:101498000D4C641BA4100026A64209D10B4D0C4C20
:1014A80000F020F8641BA4100026A64205D170BDE8
:1014B80055F8043B98470136EEE755F8043B984742
:1014C8000136F2E73C1500083C1500083C150008F9
:1014D8004015000802440346934200D1704703F8C0
:1014E800011BF9E7F8B500BFF8BC08BC9E46704779
:0C14F800F8B500BFF8BC08BC9E46704769
:1015040002030405060708090A0B0C0D0E0F101040
:101514000102030405060708090A0B0C0D0E0F103F
:10152400000000000000000001020304060708098F
:081534000000000001020304A5
:04153C00AD010008F5
:041540008901000815
:0C154400010000001000000000127A00FE
:04000005080014419A
:00000001FF
